:100000000EC028C027C026C025C074C023C022C08F
:1000100021C020C01FC01EC01DC01CC01BC0112499
:100020001FBECFE5D1E0DEBFCDBF10E0A0E6B0E05F
:10003000E0E8F1E002C005900D92A436B107D9F7CF
:1000400010E0A4E6B0E001C01D92AA36B107E1F7C6
:1000500029D094C0D5CF82E089BF81E083BF789456
:1000600008959091680040E068EC70E00DC090E069
:1000700024EC39E0FB013197F1F721503040D1F702
:100080009F5F9430A9F74F5F481788F390936800FB
:1000900040936700089510926000109261001092E2
:1000A00062000895FF920F931F9387B38C6187BB03
:1000B00082E089BF81E083BF78948FEAF82E06E959
:1000C00014E61092610010926200F09260008AE0E3
:1000D000C8DF1092600010926200009361008FE010
:1000E000C0DF10926000109261001093620083E004
:1000F000B8DFE7CF1F920F920FB60F9211242F9304
:100100008F939F932091690028BB909163009F5F1C
:1001100090936300992379F4809160008093640048
:1001200080916100809365008091620080936600F9
:100130002C612093690080916400891729F48091D3
:1001400069008B7F8093690080916500891729F48D
:10015000809169008F7E8093690080916600891785
:1001600029F480916900877F809369009F918F9126
:100170002F910F900FBE0F901F901895F894FFCFFE
:04018000AF0000FFCD
:00000001FF
