:1000000009C021C020C00DC11EC01DC01CC01BC026
:100010001AC019C011241FBECFE9CDBF10E0A0E661
:10002000B0E0EAE8F3E002C005900D92AC37B1070A
:10003000D9F710E0ACE7B0E001C01D92A238B107DB
:10004000E1F7E5D0A0C1DCCF82B790E008951F931F
:1000500040E011E0BCC0842F90E065E070E081D109
:10006000FC01E05AFF4F20812223C9F1243609F018
:100070007AC0842F90E065E070E073D1FC01E05A13
:10008000FF4F2181328121503040842F90E065E084
:1000900070E067D1FC01E05AFF4F32832183232BAC
:1000A00009F094C0842F90E065E070E05AD1DC0143
:1000B000A05ABF4F842F90E065E070E052D1FC0160
:1000C000E05AFF4F808181508C93842F90E065E04F
:1000D00070E047D1FC01E05AFF4F148277C0842FB3
:1000E00090E065E070E03DD1FC01E05AFF4F2181D6
:1000F000328121503040842F90E065E070E031D1B2
:10010000FC01E05AFF4F32832183232B09F05EC0AC
:10011000842F90E065E070E024D1DC01A05ABF4F4D
:10012000842F90E065E070E01CD1FC01E05AFF4FA5
:1001300080818F5F8C93842F90E065E070E011D117
:10014000FC01E05AFF4F148322B7842F90E065E052
:1001500070E007D1FC01E05AFF4F30E02F5F3F4FC6
:100160003283218333C0842F90E065E070E0F9D0C2
:10017000FC01E05AFF4F8481813059F4842F90E0D4
:1001800065E070E0EED0FC01E05AFF4F2F5F208366
:100190001DC02150842F90E065E070E0E2D0FC01AA
:1001A000E05AFF4F2083222389F422B7842F90E066
:1001B00065E070E0D6D0FC01E05AFF4F30E0C901A5
:1001C000019665E070E0CDD0928381834F5F45302A
:1001D00008F441CF40937C001F91089582E089BFCD
:1001E00081E083BF7894089587B38F6187BB88B31C
:1001F000807E88BB089587B38F6187BB88B3807E7C
:1002000088BB82E089BF81E083BF78940895CF9353
:10021000DF93F1DFC0E2DEE41ADFCE010197F1F7F0
:10022000FBCF1F920F920FB60F9211242F933F9383
:100230005F936F937F938F939F93AF93BF93EF934E
:10024000FF9380917A0088BB309179003F5F3093B3
:1002500079003323B9F420E00EC0E22FF0E0CF01A3
:1002600065E070E07ED0DC01A05ABF4F8C91E3586E
:10027000FF4F80832F5F253080F320937C008FE138
:1002800080937A0080917D00831779F481E090E07B
:100290000090630002C0880F991F0A94E2F78095CE
:1002A00020917A00282320937A0080917E00831782
:1002B00079F481E090E00090680002C0880F991FF7
:1002C0000A94E2F7809520917A00282320937A00FF
:1002D00080917F00831779F481E090E000906D00B9
:1002E00002C0880F991F0A94E2F7809520917A0046
:1002F000282320937A0080918000831779F481E08D
:1003000090E00090720002C0880F991F0A94E2F7F3
:10031000809520917A00282320937A008091810093
:10032000831779F481E090E00090770002C0880F95
:10033000991F0A94E2F7809520917A002823209350
:100340007A00FF91EF91BF91AF919F918F917F9133
:100350006F915F913F912F910F900FBE0F901F9063
:1003600018955527002480FF02C0060E571F660F00
:10037000771F6115710521F096958795009799F77C
:0A038000952F802D0895F894FFCF0B
:10038A0000E8030000000A00010000F40102000076
:0C039A00320003000096000400FF1F006A
:00000001FF
