:100000000EC028C027C026C025C08DC023C022C076
:1000100021C020C01FC01EC01DC01CC01BC0112499
:100020001FBECFE5D1E0DEBFCDBF10E0A0E6B0E05F
:10003000E6ECF1E002C005900D92A636B107D9F7C3
:1000400010E0A6E6B0E001C01D92AA36B107E1F7C4
:1000500059D0B7C0D5CF82E089BF81E083BF789403
:10006000089580916900823009F1833030F488234B
:1000700059F0813009F03FC010C0843049F184301C
:10008000F0F08530C1F52DC0809161008F5F8093C5
:100090006100863981F581E02CC08091600081503B
:1000A00080936000882339F582E023C0809162004C
:1000B0008F5F809362008639F1F483E01AC08091EB
:1000C00061008150809361008823A9F484E011C00D
:1000D000809160008F5F80936000863961F485E0D5
:1000E00008C080916200815080936200882319F4D7
:1000F00086E0809369008091690066E056D0909315
:1001000069000895CF93DF9387B3876087BB82E050
:1001100089BF81E083BF7894C4E2D4EFA2DFCE012F
:100120000197F1F7FBCF1F920F920FB60F92112498
:100130008F939F938091640088BB909163009F5F31
:1001400090936300992379F4809160008093660016
:1001500080916100809367008091620080936800C5
:1001600087E08093640080916600891729F480916C
:1001700064008B7F8093640080916700891729F465
:10018000809164008D7F809364008091680089175E
:1001900029F4809164008E7F809364009F918F91F9
:1001A0000F900FBE0F901F901895991B79E004C017
:1001B000991F961708F0961B881F7A95C9F78095A6
:0601C0000895F894FFCF42
:0601C600960000FF070097
:00000001FF
