:1000000012C02CC02BC02AC029C028C027C026C0BF
:1000100025C04AC023C022C021C020C01FC01EC0AE
:100020001DC01CC01BC011241FBECFE5D4E0DEBF25
:10003000CDBF11E0A0E6B0E0E2E5F2E102C005903C
:100040000D92AE36B107D9F711E0AEE6B1E001C0CE
:100050001D92AB37B107E1F72DD1F9C8D1CF97B1D8
:10006000987F97B997B1982B97B9369A349BFECF62
:1000700085B18095089589B7816089BF81E083BF8C
:1000800086E085BD85B5886085BD85B5806185BD07
:100090008FEF83BD7894089580E886B986B1866035
:1000A00086B93E9A3D9A08951F920F920FB60F920D
:1000B00011242F933F934F938F939F93AF93BF93AD
:1000C000EF93FF938091610082BB409160004F5F8E
:1000D000409360004423D1F490E011C0E92FF0E098
:1000E0009F012B583E4FDF01A259BE4F8C91D90181
:1000F0008C93EF58FE4F808113968C939F5F9330C3
:1001000068F3909374018CEF809361008091750186
:10011000841729F4809161008B7F80936100809126
:100120007601841729F480916100877F80936100B4
:1001300080917701841729F4809161008F7E8093EC
:10014000610080917801841729F4809161008F7D8E
:100150008093610080917901841729F48091610076
:100160008F7B8093610080917A01841729F48091BC
:1001700061008F7780936100FF91EF91BF91AF9104
:100180009F918F914F913F912F910F900FBE0F90A4
:100190001F9018951F9380E090E09ED7182F1F5F47
:1001A000812F90E04CD780E090E0612F70E099D7EC
:1001B0001F9108950F931F931092740100E014C0D3
:1001C0003AD7E12FF0E0EF58FE4F60E770E08BD6B2
:1001D000608390917401E92FF0E0EF58FE4F808129
:1001E000080F9F5F9093740110917401133040F3D6
:1001F000023310F31F910F910895F89420E032E339
:1002000048EA51E611C0239FC001112483BD82B387
:100210008C6F82BBCA010197F1F782B3837082BBF6
:10022000CA010197F1F72F5F253068F3209374011D
:10023000C1DF789408950F931F93CF93DF93C0E0AD
:10024000D0E000E010E01FC0E12FF0E0DF01A25994
:10025000BE4F6C9170E0EF58FE4F2081621B710918
:10026000882777FD8095982F29D39B01AC0106D272
:100270009B01AC01CA013ED06531710508F001E077
:10028000C60FD71F1F5F1330F8F210937401BE0121
:1002900080E090E0BED3E2D62DD06F5F7F4F7695A1
:1002A000679563BD002309F4A8DFDF91CF911F910B
:1002B0000F910895CF93DF9381B38C6F81BB84B38B
:1002C000887F84BBBB9AD7DEE7DE64DF73DFC4ECD4
:1002D000D9E080E0C4DE80936E0181E0C0DE8093CF
:1002E0006F0182E0BCDE80937001CE010197F1F7CF
:1002F000A2DFEFCFEF92FF920F931F937B018C0150
:1003000020E030E040E05FE4AED288237CF0C8011A
:10031000B70120E030E040E05FE45ED129D39B01EB
:10032000AC01205030404040504805C0C801B701E2
:100330001FD39B01AC01B901CA011F910F91FF901E
:10034000EF900895A0E0B0E0E7EAF1E0F3C5DC014A
:100350002B01FA019C91923008F439C1EB0188819C
:10036000823008F433C1943069F4843009F02FC12D
:1003700011969C9111978981981709F428C1A2E6DA
:10038000B0E025C1843009F421C18230A9F4923053
:1003900009F01DC19A01AD0188E0EA010990AE01A2
:1003A000E90109929E018150C1F7E201898111960C
:1003B0009C918923818308C1923009F407C1129668
:1003C0002D903C901397EB018A819B811496AD9000
:1003D000BD90CD90DC901797EC80FD800E811F8141
:1003E0009101281B390BB90137FF04C06627772715
:1003F000621B730B603271050CF061C0121613069C
:100400006CF537014801062E04C0969487947794C2
:1004100067940A94D2F721E030E040E050E004C055
:10042000220F331F441F551F6A95D2F721503040C9
:10043000404050402E213F214023512321153105BA
:100440004105510521F021E030E040E050E0790124
:100450008A01E628F728082919293CC0232BD1F165
:10046000260E371E35014601062E04C09694879449
:10047000779467940A94D2F721E030E040E050E0AE
:1004800004C0220F331F441F551F6A95D2F7215015
:100490003040404050402A213B214C215D21211514
:1004A00031054105510521F021E030E040E050E008
:1004B00059016A01A628B728C828D9280BC0821577
:1004C00093052CF01C01AA24BB24650103C0EE2473
:1004D000FF24870111969C91D20111968C91981757
:1004E00009F445C0992339F0A80197012A193B095D
:1004F0004C095D0906C0A60195012E193F09400B64
:10050000510B57FD08C01182338222822483358328
:10051000468357831DC081E08183338222828827EE
:100520009927DC01821B930BA40BB50B8483958365
:10053000A683B7830DC0220F331F441F551F24838A
:100540003583468357838281938101979383828386
:100550002481358146815781DA01C9010197A109BA
:10056000B1098F5F9F4FAF4FBF4328F30BC09183FB
:1005700033822282EA0CFB1C0C1D1D1DE482F582D5
:100580000683178383E080832481358146815781E8
:1005900057FF1AC0C901AA2797FDA095BA2F8170ED
:1005A0009070A070B0705695479537952795822B1F
:1005B000932BA42BB52B84839583A683B783828149
:1005C0009381019693838283DF0101C0D201CD0123
:1005D000CDB7DEB7E2E1CAC4A0E2B0E0E1EFF2E0FD
:1005E000B5C469837A838B839C832D833E834F8339
:1005F0005887E9E0EE2EF12CEC0EFD1ECE0101969F
:10060000B701A0D38E010F5E1F4FCE010596B80132
:1006100099D38A8991E089278A8BC701B801AE01F5
:10062000475E5F4F8FDEB9D2A096E6E0ABC4A0E292
:10063000B0E0ECE1F3E08AC469837A838B839C8326
:100640002D833E834F835887F9E0EF2EF12CEC0E7B
:10065000FD1ECE010196B70175D38E010F5E1F4FAF
:10066000CE010596B8016ED3C701B801AE01475E51
:100670005F4F68DE92D2A096E6E084C4A0E2B0E0CC
:10068000E3E4F3E057C469837A838B839C832D83EF
:100690003E834F835887CE010196BE01675F7F4F2F
:1006A00051D3CE010596BE016F5E7F4F4BD3998526
:1006B000923088F089898230C8F0943019F4823001
:1006C00051F404C0843029F4923081F482E690E041
:1006D000C6C0923049F420E09A858A89981321E0B7
:1006E0002A87CE010996BBC0823049F420E09A8562
:1006F0008A89981321E02A8BCE014196B0C02D84BF
:100700003E844F8458886D887E888F88988CEE242C
:10071000FF248701AA24BB24650140E050E060E08B
:1007200070E0E0E0F0E0C10181709070892BE9F0A9
:10073000E60CF71C081D191D9A01AB012A0D3B1D83
:100740004C1D5D1D80E090E0A0E0B0E0E614F704F1
:100750000805190520F481E090E0A0E0B0E0BA01BE
:10076000A901480F591F6A1F7B1FAA0CBB1CCC1C78
:10077000DD1C97FE08C081E090E0A0E0B0E0A82A70
:10078000B92ACA2ADB2A3196E032F10549F0660C13
:10079000771C881C991C5694479437942794C3CF90
:1007A000FA85EA892B893C898B859C85280F391F1E
:1007B0002E5F3F4F17C0CA0181709070892B61F086
:1007C00016950795F794E79480E090E0A0E0B0E8F4
:1007D000E82AF92A0A2B1B2B76956795579547959A
:1007E0002F5F3F4F77FDE7CF0CC0440F551F661FAB
:1007F000771F17FD4160EE0CFF1C001F111F2150D9
:100800003040403090E0590790E0690790E4790764
:1008100060F32B8F3C8FDB01CA018F779070A07043
:10082000B07080349105A105B10561F447FD0AC09F
:10083000E114F1040105110529F0405C5F4F6F4F91
:100840007F4F40781A8EFE1711F081E08A8F4D8F0E
:100850005E8F6F8F78A383E0898FCE0149969DD1FB
:10086000A096E2E183C3A8E1B0E0E8E3F4E06EC360
:1008700069837A838B839C832D833E834F83588740
:1008800089E0E82EF12CEC0EFD1ECE010196B70199
:1008900059D28E010F5E1F4FCE010596B80152D27C
:1008A0008985823038F08989823020F0C701B8010B
:1008B000C1D201C08FEF6896E6E064C3A8E0B0E063
:1008C000E3E6F4E040C39B01AC0183E08983DA01F5
:1008D000C9018827B7FD83959927AA27BB27B82E7A
:1008E000211531054105510519F482E0898339C08C
:1008F0008823A9F0203080E0380780E0480780E8AE
:10090000580729F460E070E080E09FEC2EC0EE24F0
:10091000FF248701E21AF30A040B150B02C07901C8
:100920008A018EE1C82ED12CDC82CB82ED82FE8240
:100930000F831887C801B701E1D00197181619066F
:1009400084F4082E04C0EE0CFF1C001F111F0A9433
:10095000D2F7ED82FE820F831887C81AD90ADC828B
:10096000CB82BA82CE01019618D12896E9E007C35E
:10097000ACE0B0E0EDEBF4E0EDC269837A838B8309
:100980009C83CE010196BE016B5F7F4FDBD18D81D1
:10099000823061F1823050F1843021F48E818823DD
:1009A00051F12EC02F81388537FD20C06E812F3147
:1009B00031051CF06623F9F023C08EE190E0821B24
:1009C000930B29853A854B855C8504C056954795E0
:1009D000379527958A95D2F76623B1F050954095C3
:1009E000309521953F4F4F4F5F4F0EC020E030E0D4
:1009F00040E050E009C02FEF3FEF4FEF5FE704C04A
:100A000020E030E040E050E8B901CA012C96E2E075
:100A1000BDC2A8E0B0E0EEE0F5E094C27B018C013D
:100A2000611571058105910519F482E089835FC024
:100A300083E089838EE1C82ED12CDC82CB82ED82CB
:100A4000FE820F831887C801B70158D0FC01319787
:100A5000F7FF3BC0222733272E1B3F0B57016801AE
:100A6000022E04C0D694C794B794A7940A94D2F7E0
:100A700040E050E060E070E081E090E0A0E0B0E0B5
:100A800004C0880F991FAA1FBB1F2A95D2F7019790
:100A9000A109B1098E219F21A023B1230097A105AF
:100AA000B10521F041E050E060E070E04A295B29A7
:100AB0006C297D294D835E836F8378878EE190E07A
:100AC0008E1B9F0B9C838B8312C0309781F00E2E60
:100AD00004C0EE0CFF1C001F111F0A94D2F7ED8218
:100AE000FE820F831887CE1ADF0ADC82CB821A823D
:100AF000CE01019652D02896EAE040C2EF92FF92D2
:100B00000F931F937B018C0180E0E81680E0F806CC
:100B100081E0080780E0180788F48FEFE816F104F9
:100B20000105110531F028F088E090E0A0E0B0E088
:100B300017C080E090E0A0E0B0E012C080E0E816CE
:100B400080E0F80680E0080781E0180728F088E1D7
:100B500090E0A0E0B0E004C080E190E0A0E0B0E070
:100B600020E230E040E050E0281B390B4A0B5B0BE1
:100B700004C016950795F794E7948A95D2F7F70184
:100B8000E659FF4F8081281B310941095109C901EC
:100B90001F910F91FF90EF900895DF92EF92FF92D7
:100BA0000F931F93FC01E480F58006811781D180AB
:100BB0008081823048F480E090E0A0E1B0E0E82A53
:100BC000F92A0A2B1B2BA5C0843009F49FC0823060
:100BD00021F4EE24FF24870105C0E114F10401058E
:100BE000110519F4E0E0F0E096C0628173819FEF97
:100BF000623879070CF05BC022E83FEF261B370B09
:100C00002A3131052CF020E030E040E050E02AC0ED
:100C1000B801A701022E04C07695679557954795B0
:100C20000A94D2F781E090E0A0E0B0E004C0880F21
:100C3000991FAA1FBB1F2A95D2F70197A109B109D5
:100C40008E219F21A023B1230097A105B10521F09A
:100C500081E090E0A0E0B0E09A01AB01282B392BB5
:100C60004A2B5B2BDA01C9018F779070A070B070AE
:100C700080349105A105B10539F427FF09C0205C36
:100C80003F4F4F4F5F4F04C0215C3F4F4F4F5F4F6F
:100C9000E0E0F0E02030A0E03A07A0E04A07A0E45E
:100CA0005A0710F0E1E0F0E079018A0127C06038CE
:100CB000710564F5FB01E158FF4FD801C7018F773B
:100CC0009070A070B07080349105A105B10539F421
:100CD000E7FE0DC080E490E0A0E0B0E004C08FE348
:100CE00090E0A0E0B0E0E80EF91E0A1F1B1F17FFFE
:100CF00005C016950795F794E794319687E0169509
:100D00000795F794E7948A95D1F705C0EE24FF2460
:100D10008701EFEFF0E06E2F679566276795902FBC
:100D20009F77D794DD24D7948E2F8695492F462B15
:100D3000582F5D29B701CA011F910F91FF90EF90C5
:100D4000DF900895FC01DB01408151812281622FF7
:100D50006F7770E0221F2227221F9381892F880F2F
:100D6000822B282F30E0991F9927991F11969C9369
:100D7000119721153105A9F5411551056105710539
:100D800011F482E037C082E89FEF13969C938E9314
:100D900012979A01AB0167E0220F331F441F551FC2
:100DA0006A95D1F783E08C930DC0220F331F441F47
:100DB000551F12968D919C911397019713969C93B2
:100DC0008E931297203080E0380780E0480780E457
:100DD000580758F314962D933D934D935C931797B2
:100DE00008952F3F310579F44115510561057105CD
:100DF00019F484E08C93089564FF03C081E08C9320
:100E000012C01C9210C02F57304013963C932E9363
:100E1000129783E08C9387E0440F551F661F771F5E
:100E20008A95D1F7706414964D935D936D937C937E
:100E3000179708951F93DC01FB019C91923008F4F1
:100E400047C08081823008F443C0943051F4119639
:100E50001C91843099F58181682F70E0611B7109C4
:100E60003FC0843021F0923031F48230B9F1818179
:100E7000882389F12DC011961C9111978230F1F0D1
:100E800081811817D9F412962D913C911397828184
:100E900093818217930794F028173907BCF01496B2
:100EA0008D919D910D90BC91A02D2481358146811D
:100EB0005781281739074A075B0718F4112341F0B7
:100EC0000AC082179307A407B50740F4112319F04D
:100ED00061E070E005C06FEF7FEF02C060E070E09E
:100EE000CB011F91089597FB092E07260AD077FDA5
:100EF00004D00CD006D000201AF4709561957F4F75
:100F00000895F6F7909581959F4F0895AA1BBB1BF6
:100F100051E107C0AA1FBB1FA617B70710F0A61BF9
:100F2000B70B881F991F5A95A9F780959095BC011A
:100F3000CD0108952F923F924F925F926F927F92D0
:100F40008F929F92AF92BF92CF92DF92EF92FF92D9
:100F50000F931F93CF93DF93CDB7DEB7CA1BDB0B85
:100F60000FB6F894DEBF0FBECDBF09942A8839882A
:100F700048885F846E847D848C849B84AA84B98431
:100F8000C884DF80EE80FD800C811B81AA81B9813D
:100F9000CE0FD11D0FB6F894DEBF0FBECDBFED0151
:100FA0000895A0E0B0E0E6EDF7E0CCCFEC01A8803A
:100FB000B980CA80DB80A114B104C104D10441F41A
:100FC00084E2A82E89EDB82E8BE5C82E87E0D82EB6
:100FD000C601B5012DE133EF41E050E0FBD027EA37
:100FE00031E440E050E0D7D07B018C01C601B5016F
:100FF0002DE133EF41E050E0EDD0CA01B9012CEE14
:1010000034EF4FEF5FEFC7D06E0D7F1D801F911F34
:1010100097FF04C061507040804090486883798396
:101020008A839B839B013F77C901CDB7DEB7EAE096
:10103000A5CFB7DF08958AE691E0B3DF0895A0E079
:10104000B0E080936A0190936B01A0936C01B09320
:101050006D01089511F40EF455C046C065D0D0F36B
:101060009923D9F3CEF39F57550B87FF4ED0002419
:10107000A0E640EA900180585695979528F4805C48
:10108000660F771F881F20F026173707480730F4B0
:10109000621B730B840B202931294A2BA6951794C8
:1010A0000794202531254A2758F7660F771F881F98
:1010B00020F026173707480730F4620B730B840BB8
:1010C000200D311D411DA09581F7B901842F915844
:1010D000880F969587950895A8E1B0E042E050E02A
:1010E0003FC04CD0272F4BC09F3F31F0915020F490
:1010F000879577956795B795880F911D96958795F4
:1011000097F908959FEF80EC089591505040660F35
:10111000771F881FD2F7089557FD9058440F551F29
:1011200059F05F3F71F04795880F97FB991F61F069
:101130009F3F79F087950895121613061406551FE0
:10114000F2CF4695F1DF08C0161617061806991F4C
:10115000F1CF86957105610508940895DC01CB01F6
:10116000FC01E199FECF06C0FFBBEEBBE09A3196D1
:101170000DB20D9241505040B8F70895262FE199D5
:10118000FECF9FBB8EBB2DBB0FB6F894E29AE19ABF
:101190000FBE01960895629FD001739FF001829F58
:1011A000E00DF11D649FE00DF11D929FF00D839FF6
:1011B000F00D749FF00D659FF00D9927729FB00D93
:1011C000E11DF91F639FB00DE11DF91FBD01CF01A6
:1011D0001124089597FB092E05260ED057FD04D043
:1011E00014D00AD0001C38F45095409530952195C4
:1011F0003F4F4F4F5F4F0895F6F79095809570954C
:1012000061957F4F8F4F9F4F0895A1E21A2EAA1B21
:10121000BB1BFD010DC0AA1FBB1FEE1FFF1FA217A6
:10122000B307E407F50720F0A21BB30BE40BF50BA3
:10123000661F771F881F991F1A9469F7609570952C
:10124000809590959B01AC01BD01CF010895F89464
:02125000FFCFCE
:10125200FFFC000000000000000000010202030386
:101262000303040404040404040405050505050538
:101272000505050505050505050506060606060616
:1012820006060606060606060606060606060606FC
:1012920006060606060606060606070707070707E6
:1012A20007070707070707070707070707070707CC
:1012B20007070707070707070707070707070707BC
:1012C20007070707070707070707070707070707AC
:1012D2000707070707070707070708080808080896
:1012E200080808080808080808080808080808087C
:1012F200080808080808080808080808080808086C
:10130200080808080808080808080808080808085B
:10131200080808080808080808080808080808084B
:10132200080808080808080808080808080808083B
:10133200080808080808080808080808080808082B
:10134200080808080808080808080808080808081B
:0E13520008080808080808080808010000003C
:00000001FF
